:100000000C942A000C943E090C942D0A0C94EB0AD3
:100010000C9447000C9447000C9447000C94470044
:100020000C9447000C9447000C9447000C94470034
:100030000C94CE070C9447000C9447000C94470096
:100040000C9447000C9447000C9447000C94470014
:100050000C94470011241FBECFE5D8E0DEBFCDBF12
:1000600011E0A0E6B0E0E6E6FBE402C005900D92E8
:10007000AE31B107D9F711E0AEE1B1E001C01D9298
:10008000AE32B107E1F70E942C1E0C94B1250C94FE
:100090000000EF92FF920F931F937B018C0120E0F1
:1000A00030E040E05FE40E94F50388238CF0C80153
:1000B000B70120E030E040E05FE40E94C1010E940F
:1000C00055049B01AC01205030404040504806C0D0
:1000D000C801B7010E9455049B01AC01B901CA01D6
:1000E0001F910F91FF90EF900895A0E0B0E0EBE733
:1000F000F0E00C947A25DC012B01FA019C919230FE
:1001000008F439C1EB018881823008F433C194309E
:1001100069F4843009F02FC111969C91119789815F
:10012000981709F428C1ADEFB0E025C1843009F477
:1001300021C18230A9F4923009F01DC19A01AD01AC
:1001400088E0EA010990AE01E90109929E0181501F
:10015000C1F7E201898111969C918923818308C1AD
:10016000923009F407C112962D903C901397EB0141
:100170008A819B811496AD90BD90CD90DC901797AD
:10018000EC80FD800E811F819101281B390BB90184
:1001900037FF04C066277727621B730B6032710537
:1001A0000CF061C0121613066CF537014801062EDB
:1001B00004C096948794779467940A94D2F721E0C8
:1001C00030E040E050E004C0220F331F441F551FB1
:1001D0006A95D2F721503040404050402E213F21B7
:1001E00040235123211531054105510521F021E01E
:1001F00030E040E050E079018A01E628F72808293C
:1002000019293CC0232BD1F1260E371E350146019A
:10021000062E04C096948794779467940A94D2F734
:1002200021E030E040E050E004C0220F331F441FC3
:10023000551F6A95D2F721503040404050402A2146
:100240003B214C215D21211531054105510521F04E
:1002500021E030E040E050E059016A01A628B728CB
:10026000C828D9280BC0821593052CF01C01AA249C
:10027000BB24650103C0EE24FF24870111969C91E5
:10028000D20111968C91981709F445C0992339F041
:10029000A80197012A193B094C095D0906C0A6016E
:1002A00095012E193F09400B510B57FD08C01182D3
:1002B0003382228224833583468357831DC081E0A5
:1002C00081833382228288279927DC01821B930B4A
:1002D000A40BB50B84839583A683B7830DC0220F2F
:1002E000331F441F551F24833583468357838281E0
:1002F000938101979383828324813581468157813D
:10030000DA01C9010197A109B1098F5F9F4FAF4F72
:10031000BF4328F30BC0918333822282EA0CFB1C7B
:100320000C1D1D1DE482F5820683178383E0808304
:10033000248135814681578157FF1AC0C901AA27F8
:1003400097FDA095BA2F81709070A070B0705695EF
:10035000479537952795822B932BA42BB52B848318
:100360009583A683B7838281938101969383828349
:10037000DF0101C0D201CD01CDB7DEB7E2E10C94BF
:100380009625A0E2B0E0E7ECF1E00C9486256983C5
:100390007A838B839C832D833E834F835887E9E048
:1003A000EE2EF12CEC0EFD1ECE010196B7010E943F
:1003B0007E058E010F5E1F4FCE010596B8010E948B
:1003C0007E058A8991E089278A8BC701B801AE0131
:1003D000475E5F4F0E9475000E94A904A096E6E068
:1003E0000C94A225A0E2B0E0E8EFF1E00C948625A1
:1003F00069837A838B839C832D833E834F835887C5
:10040000F9E0EF2EF12CEC0EFD1ECE010196B701A6
:100410000E947E058E010F5E1F4FCE010596B8012A
:100420000E947E05C701B801AE01475E5F4F0E9482
:1004300075000E94A904A096E6E00C94A225A0E213
:10044000B0E0E5E2F2E00C947A2569837A838B834D
:100450009C832D833E834F835887CE010196BE0136
:10046000675F7F4F0E947E05CE010596BE016F5EDD
:100470007F4F0E947E059985923088F0898982306D
:10048000C8F0943019F4823051F404C0843029F457
:10049000923081F48DEF90E0C6C0923049F420E0B4
:1004A0009A858A89981321E02A87CE010996BBC0D4
:1004B000823049F420E09A858A89981321E02A8BBA
:1004C000CE014196B0C02D843E844F8458886D88FB
:1004D0007E888F88988CEE24FF248701AA24BB2471
:1004E000650140E050E060E070E0E0E0F0E0C10174
:1004F00081709070892BE9F0E60CF71C081D191D1E
:100500009A01AB012A0D3B1D4C1D5D1D80E090E062
:10051000A0E0B0E0E614F7040805190520F481E036
:1005200090E0A0E0B0E0BA01A901480F591F6A1F8E
:100530007B1FAA0CBB1CCC1CDD1C97FE08C081E0F5
:1005400090E0A0E0B0E0A82AB92ACA2ADB2A3196B6
:10055000E032F10549F0660C771C881C991C569412
:10056000479437942794C3CFFA85EA892B893C892D
:100570008B859C85280F391F2E5F3F4F17C0CA01FE
:1005800081709070892B61F016950795F794E79428
:1005900080E090E0A0E0B0E8E82AF92A0A2B1B2BC3
:1005A00076956795579547952F5F3F4F77FDE7CF36
:1005B0000CC0440F551F661F771F17FD4160EE0CDE
:1005C000FF1C001F111F21503040403090E05907A0
:1005D00090E0690790E4790760F32B8F3C8FDB0193
:1005E000CA018F779070A070B07080349105A1051A
:1005F000B10561F447FD0AC0E114F10401051105DC
:1006000029F0405C5F4F6F4F7F4F40781A8EFE1786
:1006100011F081E08A8F4D8F5E8F6F8F78A383E01A
:10062000898FCE0149960E94A904A096E2E10C941C
:100630009625A8E1B0E0EFE1F3E00C948225698310
:100640007A838B839C832D833E834F835887B9E0C5
:10065000EB2EF12CEC0EFD1ECE010196B7010E948F
:100660007E058E010F5E1F4FCE010596B8010E94D8
:100670007E052985223008F47EC03989323010F495
:10068000B8017CC08A859A8989278A87243011F02D
:10069000223031F4231709F06EC06DEF70E06EC0A8
:1006A000343039F41D861E861F86188A1C861B86E8
:1006B00004C0323021F484E08987B7015FC02B8504
:1006C0003C858B899C89281B390B3C872B87ED84C3
:1006D000FE840F851889AD88BE88CF88D88CEA142F
:1006E000FB040C051D0540F4EE0CFF1C001F111F40
:1006F000215030403C872B8720E030E040E050E044
:1007000080E090E0A0E0B0E460E070E0EA14FB0478
:100710000C051D0540F0282B392B4A2B5B2BEA18C2
:10072000FB080C091D09B695A79597958795EE0CC2
:10073000FF1C001F111F6F5F7F4F6F31710531F775
:10074000DA01C9018F779070A070B0708034910584
:10075000A105B10561F427FD0AC0E114F10401050A
:10076000110529F0205C3F4F4F4F5F4F20782D87B8
:100770003E874F87588BBE01675F7F4FCB010E943A
:10078000A9046896EAE00C949E25A8E1B0E0EBECA1
:10079000F3E00C94862569837A838B839C832D8375
:1007A0003E834F83588789E0E82EF12CEC0EFD1E26
:1007B000CE010196B7010E947E058E010F5E1F4F8C
:1007C000CE010596B8010E947E058985823040F0F1
:1007D0008989823028F0C701B8010E94F60501C05E
:1007E0008FEF6896E6E00C94A225A8E1B0E0EBEF6D
:1007F000F3E00C94862569837A838B839C832D8315
:100800003E834F83588789E0E82EF12CEC0EFD1EC5
:10081000CE010196B7010E947E058E010F5E1F4F2B
:10082000CE010596B8010E947E058985823040F090
:100830008989823028F0C701B8010E94F60501C0FD
:100840008FEF6896E6E00C94A225A8E1B0E0EBE219
:10085000F4E00C94862569837A838B839C832D83B3
:100860003E834F83588789E0E82EF12CEC0EFD1E65
:10087000CE010196B7010E947E058E010F5E1F4FCB
:10088000CE010596B8010E947E058985823040F030
:100890008989823028F0C701B8010E94F60501C09D
:1008A00081E06896E6E00C94A225ACE0B0E0EBE5D0
:1008B000F4E00C948A2569837A838B839C83CE0130
:1008C0000196BE016B5F7F4F0E947E058D81823055
:1008D00061F1823050F1843021F48E81882351F10E
:1008E0002EC02F81388537FD20C06E812F31310514
:1008F0001CF06623F9F023C08EE190E0821B930B7D
:1009000029853A854B855C8504C056954795379572
:1009100027958A95D2F76623B1F05095409530958A
:1009200021953F4F4F4F5F4F0EC020E030E040E039
:1009300050E009C02FEF3FEF4FEF5FE704C020E02A
:1009400030E040E050E8B901CA012C96E2E00C9496
:10095000A625DF92EF92FF920F931F93FC01E48094
:10096000F58006811781D1808081823048F480E053
:1009700090E0A0E1B0E0E82AF92A0A2B1B2BA5C0E1
:10098000843009F49FC0823021F4EE24FF248701D3
:1009900005C0E114F1040105110519F4E0E0F0E0EF
:1009A00096C0628173819FEF623879070CF05BC05B
:1009B00022E83FEF261B370B2A3131052CF020E0CF
:1009C00030E040E050E02AC0B801A701022E04C088
:1009D00076956795579547950A94D2F781E090E010
:1009E000A0E0B0E004C0880F991FAA1FBB1F2A9582
:1009F000D2F70197A109B1098E219F21A023B1232C
:100A00000097A105B10521F081E090E0A0E0B0E001
:100A10009A01AB01282B392B4A2B5B2BDA01C90138
:100A20008F779070A070B07080349105A105B105EA
:100A300039F427FF09C0205C3F4F4F4F5F4F04C080
:100A4000215C3F4F4F4F5F4FE0E0F0E02030A0E0EF
:100A50003A07A0E04A07A0E45A0710F0E1E0F0E00E
:100A600079018A0127C06038710564F5FB01E158FE
:100A7000FF4FD801C7018F779070A070B07080349D
:100A80009105A105B10539F4E7FE0DC080E490E0C1
:100A9000A0E0B0E004C08FE390E0A0E0B0E0E80E9A
:100AA000F91E0A1F1B1F17FF05C016950795F7941F
:100AB000E794319687E016950795F794E7948A9521
:100AC000D1F705C0EE24FF248701EFEFF0E06E2F91
:100AD000679566276795902F9F77D794DD24D794E5
:100AE0008E2F8695492F462B582F5D29B701CA01B5
:100AF0001F910F91FF90EF90DF900895FC01DB01B3
:100B0000408151812281622F6F7770E0221F22275E
:100B1000221F9381892F880F822B282F30E0991F65
:100B20009927991F11969C93119721153105A9F5C5
:100B3000411551056105710511F482E037C082E865
:100B40009FEF13969C938E9312979A01AB0167E0E7
:100B5000220F331F441F551F6A95D1F783E08C93F2
:100B60000DC0220F331F441F551F12968D919C916B
:100B70001397019713969C938E931297203080E0E1
:100B8000380780E0480780E4580758F314962D93FF
:100B90003D934D935C93179708952F3F310579F45A
:100BA000411551056105710519F484E08C93089590
:100BB00064FF03C081E08C9312C01C9210C02F57B9
:100BC000304013963C932E93129783E08C9387E0EA
:100BD000440F551F661F771F8A95D1F770641496CE
:100BE0004D935D936D937C93179708951F93DC014C
:100BF000FB019C91923008F447C08081823008F458
:100C000043C0943051F411961C91843099F5818140
:100C1000682F70E0611B71093FC0843021F0923071
:100C200031F48230B9F18181882389F12DC0119688
:100C30001C9111978230F1F081811817D9F4129626
:100C40002D913C911397828193818217930794F0A1
:100C500028173907BCF014968D919D910D90BC9189
:100C6000A02D2481358146815781281739074A07ED
:100C70005B0718F4112341F00AC082179307A407F9
:100C8000B50740F4112319F061E070E005C06FEF83
:100C90007FEF02C060E070E0CB011F910895DF9309
:100CA000CF930F92CDB7DEB71982ADE2B0E0EDE29F
:100CB000F0E0808180618C93ADE2B0E0EDE2F0E0A5
:100CC00080818F7D8C93ADE2B0E0EDE2F0E0808139
:100CD000877F8C93ADE2B0E0EDE2F0E080818B7F26
:100CE0008C93AEE2B0E0EEE2F0E0808181608C9324
:100CF000ADE2B0E0EDE2F0E0808181608C93ADE2A6
:100D0000B0E0EDE2F0E080818D7F8C93ADE2B0E069
:100D1000EDE2F0E0808180648C9381E089838981B9
:100D20000F90CF91DF910895DF93CF930F92CDB7BE
:100D3000DEB71982ADE2B0E0EDE2F0E080818F7EB7
:100D40008C93ADE2B0E0EDE2F0E080818F7D8C939A
:100D5000ADE2B0E0EDE2F0E08081877F8C93ADE220
:100D6000B0E0EDE2F0E080818B7F8C93ADE2B0E00B
:100D7000EDE2F0E0808180648C9389810F90CF91C7
:100D8000DF910895DF93CF9300D000D0CDB7DEB7C9
:100D90008A837C836B8381E089838091050188232A
:100DA00019F485E0898314C010920501EFE2F0E0A8
:100DB0008A818083EEE2F0E080818823DCF7EFE235
:100DC000F0E08081EB81FC81808381E080930501EC
:100DD00089810F900F900F900F90CF91DF91089520
:100DE000DF93CF9300D000D00F92CDB7DEB79C83B6
:100DF0008B836D831A828B819C81009719F482E02A
:100E00008A8326C080910501882319F485E08A83AE
:100E10001CC010920501198214C08981282F30E06E
:100E20008B819C81FC01E20FF31F808160E070E008
:100E30000E94C2068A838A81813039F489818F5F5A
:100E4000898399818D81981740F381E08093050112
:100E50008A810F900F900F900F900F90CF91DF919C
:100E60000895DF93CF9300D000D000D0CDB7DEB788
:100E70009B838A836C835E834D8381E089838A812F
:100E80009B81009721F08D819E81009719F482E06B
:100E9000898337C080910501882319F485E089830F
:100EA00030C0109205018A819B8190931F0180932D
:100EB0001E018C81809320018D819E81909323015E
:100EC0008093220110922101ADE2B0E0EDE2F0E06A
:100ED000808180688C93AFE2B0E020911E01309158
:100EE0001F0180912101882F90E0F901E80FF91F7F
:100EF00080818C93809121018F5F8093210181E01B
:100F00008983898126960FB6F894DEBF0FBECDBFC8
:100F1000CF91DF910895DF93CF93CDB7DEB7ADE2E8
:100F2000B0E0EDE2F0E0808180688C9381E0CF91C9
:100F3000DF910895DF93CF93CDB7DEB7ADE2B0E098
:100F4000EDE2F0E080818F778C9381E0CF91DF91AB
:100F50000895DF93CF9300D00F92CDB7DEB79A8379
:100F6000898389819A81009719F482E08B830FC06D
:100F7000EEE2F0E08081882324F0E981FA8110829A
:100F800004C0E981FA8181E0808381E08B838B81D9
:100F90000F900F900F90CF91DF9108951F920F92B5
:100FA0000FB60F9211242F933F934F935F936F933C
:100FB0007F938F939F93AF93BF93EF93FF93DF93B1
:100FC000CF93CDB7DEB79091210180912001981782
:100FD000A8F4AFE2B0E020911E0130911F01809192
:100FE0002101882F90E0F901E80FF91F80818C938F
:100FF000809121018F5F809321010FC0ADE2B0E0AD
:10100000EDE2F0E080818F778C9381E080930501A1
:10101000E0912201F09123010995CF91DF91FF9199
:10102000EF91BF91AF919F918F917F916F915F9160
:101030004F913F912F910F900FBE0F901F901895D9
:10104000DF93CF930F92CDB7DEB71982EAE3F0E0DA
:101050001082E7E3F0E080EB8083E4E3F0E01082CD
:10106000E1E3F0E083E08083EBE3F0E01082E8E38B
:10107000F0E01082E5E3F0E01082E2E3F0E01082BD
:1010800081E0898389810F90CF91DF910895DF936B
:10109000CF930F92CDB7DEB71982AFE5B0E0EFE5A1
:1010A000F0E0808180688C9381E0898389810F9052
:1010B000CF91DF910895DF93CF930F92CDB7DEB735
:1010C0001982AFE5B0E0EFE5F0E080818F778C9397
:1010D00081E0898389810F90CF91DF910895DF931B
:1010E000CF9300D000D0CDB7DEB78A8319828A8132
:1010F000843008F05DC08A81282F30E03C832B8348
:101100008B819C818130910521F12B813C812230A2
:1011100031052CF48B819C81009761F046C02B81B6
:101120003C812230310521F18B819C8183309105F6
:1011300071F13BC0A5E5B0E0E5E5F0E080818E7F90
:101140008C93A5E5B0E0E5E5F0E080818D7F8C93A0
:101150002CC0A5E5B0E0E5E5F0E0808181608C93EE
:10116000A5E5B0E0E5E5F0E080818D7F8C931DC0C2
:10117000A5E5B0E0E5E5F0E080818E7F8C93A5E504
:10118000B0E0E5E5F0E0808182608C930EC0A5E5DB
:10119000B0E0E5E5F0E0808181608C93A5E5B0E00A
:1011A000E5E5F0E0808182608C9381E0898302C074
:1011B00083E08983ABE5B0E0EBE5F0E0808180641B
:1011C0008C9389810F900F900F900F90CF91DF91AA
:1011D0000895DF93CF9300D00F92CDB7DEB79B83F6
:1011E0008A831982EAE5F0E080818295869586956A
:1011F0008370882F90E081709070882331F0EA81AD
:10120000FB81108281E0898313C0EAE5F0E08081F0
:101210008295869586958370882F90E08170907076
:10122000009731F4EA81FB8181E0808381E089834A
:1012300089810F900F900F90CF91DF910895DF93E8
:10124000CF9300D00F92CDB7DEB79B838A831982EC
:101250008A819B81009749F08A819B819093250127
:101260008093240181E0898302C082E0898389819F
:101270000F900F900F90CF91DF9108951F920F92D2
:101280000FB60F9211242F933F934F935F936F9359
:101290007F938F939F93AF93BF93EF93FF93DF93CE
:1012A000CF93CDB7DEB7E0912401F09125010995E8
:1012B000CF91DF91FF91EF91BF91AF919F918F916E
:1012C0007F916F915F914F913F912F910F900FBE42
:1012D0000F901F901895DF93CF9300D000D0CDB71B
:1012E000DEB78A8319828A81843008F05DC08A81E2
:1012F000282F30E03C832B838B819C8181309105AA
:1013000021F12B813C81223031052CF48B819C8191
:10131000009761F046C02B813C812230310521F1DC
:101320008B819C818330910571F13BC0A5E5B0E0D4
:10133000E5E5F0E080818B7F8C93A5E5B0E0E5E505
:10134000F0E08081877F8C932CC0A5E5B0E0E5E5D7
:10135000F0E0808184608C93A5E5B0E0E5E5F0E005
:101360008081877F8C931DC0A5E5B0E0E5E5F0E0C6
:1013700080818B7F8C93A5E5B0E0E5E5F0E080818E
:1013800088608C930EC0A5E5B0E0E5E5F0E08081D3
:1013900084608C93A5E5B0E0E5E5F0E080818860AD
:1013A0008C9381E0898302C083E08983ABE5B0E060
:1013B000EBE5F0E0808180688C9389810F900F903D
:1013C0000F900F90CF91DF910895DF93CF9300D0CE
:1013D0000F92CDB7DEB79B838A831982EAE5F0E0EE
:1013E0008081881F8827881F813031F4EA81FB8142
:1013F000108281E089830BC0EAE5F0E080818823D8
:1014000034F0EA81FB8181E0808381E089838981F6
:101410000F900F900F90CF91DF910895DF93CF93AE
:1014200000D00F92CDB7DEB79B838A8319828A8161
:101430009B81009749F08A819B819093270180933B
:10144000260181E0898302C082E0898389810F902F
:101450000F900F90CF91DF9108951F920F920FB6CA
:101460000F9211242F933F934F935F936F937F932A
:101470008F939F93AF93BF93EF93FF93DF93CF939C
:10148000CDB7DEB7E0912601F09127010995CF9104
:10149000DF91FF91EF91BF91AF919F918F917F91DC
:1014A0006F915F914F913F912F910F900FBE0F90D1
:1014B0001F901895DF93CF9300D000D0CDB7DEB743
:1014C0008A8319828A81843010F58A81282F30E03E
:1014D0003C832B838B819C818230910531F02B8161
:1014E0003C812330310549F00FC0A4E5B0E0E4E5CC
:1014F000F0E080818F7B8C9307C0A4E5B0E0E4E549
:10150000F0E0808180648C9381E0898302C083E075
:101510008983ABE5B0E0EBE5F0E0808180628C93FD
:1015200089810F900F900F900F90CF91DF910895C8
:10153000DF93CF9300D00F92CDB7DEB79B838A8322
:101540001982EAE5F0E08081829586958770882F80
:1015500090E081709070882331F0EA81FB811082E5
:1015600081E0898312C0EAE5F0E08081829586956A
:101570008770882F90E081709070009731F4EA8135
:10158000FB8181E0808381E0898389810F900F90C6
:101590000F90CF91DF910895DF93CF9300D00F92FA
:1015A000CDB7DEB79B838A8319828A819B8100979E
:1015B00049F08A819B81909329018093280181E0E1
:1015C000898302C082E0898389810F900F900F90F8
:1015D000CF91DF9108951F920F920FB60F921124B1
:1015E0002F933F934F935F936F937F938F939F932B
:1015F000AF93BF93EF93FF93DF93CF93CDB7DEB756
:10160000E0912801F09129010995CF91DF91FF9197
:10161000EF91BF91AF919F918F917F916F915F916A
:101620004F913F912F910F900FBE0F901F901895E3
:10163000DF93CF9300D000D0CDB7DEB78A83198275
:101640008A81833068F58A81282F30E03C832B83A0
:101650008B819C818130910589F02B813C812230E6
:101660003105A1F08B819C810097B9F4ABE5B0E026
:10167000EBE5F0E080818F7B8C930FC0ABE5B0E0B1
:10168000EBE5F0E080818F778C9307C0ABE5B0E0AD
:10169000EBE5F0E080818F7D8C9381E0898302C04F
:1016A00083E0898389810F900F900F900F90CF91E5
:1016B000DF910895DF93CF9300D000D000D0CDB755
:1016C000DEB78A836B834C8319828A81282F30E0AE
:1016D0003E832D838D819E818130910509F448C020
:1016E0002D813E81223031052CF48D819E81009721
:1016F00071F0D1C02D813E812230310509F469C0DD
:101700008D819E818330910509F494C0C4C08C8181
:101710008823A9F4AAE3B0E0EAE3F0E08081482F4F
:101720008B81282F30E081E090E0022E02C0880FEC
:10173000991F0A94E2F7809584238C9316C08C81BC
:10174000813099F4AAE3B0E0EAE3F0E08081482F29
:101750008B81282F30E081E090E0022E02C0880FBC
:10176000991F0A94E2F7842B8C9381E0898395C0BA
:101770008C818823A9F4A7E3B0E0E7E3F0E080815F
:10178000482F8B81282F30E081E090E0022E02C0AC
:10179000880F991F0A94E2F7809584238C9316C0D2
:1017A0008C81813099F4A7E3B0E0E7E3F0E0808139
:1017B000482F8B81282F30E081E090E0022E02C07C
:1017C000880F991F0A94E2F7842B8C9381E0898318
:1017D00064C08C818823A9F4A4E3B0E0E4E3F0E0E2
:1017E0008081482F8B81282F30E081E090E0022E0D
:1017F00002C0880F991F0A94E2F7809584238C9386
:1018000016C08C81813099F4A4E3B0E0E4E3F0E009
:101810008081482F8B81282F30E081E090E0022EDC
:1018200002C0880F991F0A94E2F7842B8C9381E001
:10183000898333C08C818823A9F4A1E3B0E0E1E37C
:10184000F0E08081482F8B81282F30E081E090E00C
:10185000022E02C0880F991F0A94E2F78095842314
:101860008C9316C08C81813099F4A1E3B0E0E1E360
:10187000F0E08081482F8B81282F30E081E090E0DC
:10188000022E02C0880F991F0A94E2F7842B8C93D2
:1018900081E0898302C083E08983898126960FB61F
:1018A000F894DEBF0FBECDBFCF91DF910895DF93D7
:1018B000CF9300D000D00F92CDB7DEB78A836B8371
:1018C00019828A81282F30E03D832C838C819D8171
:1018D00081309105E1F02C813D81223031052CF4DD
:1018E0008C819D81009761F027C02C813D81223041
:1018F0003105A1F08C819D8183309105B1F01CC030
:10190000EAE3F0E08B81808381E0898317C0E7E31D
:10191000F0E08B81808381E0898310C0E4E3F0E014
:101920008B81808381E0898309C0E1E3F0E08B81D2
:10193000808381E0898302C083E0898389810F905D
:101940000F900F900F900F90CF91DF910895DF933C
:10195000CF9300D000D000D0CDB7DEB78A836B83A1
:101960004C8319828A81282F30E03E832D838D811C
:101970009E818130910509F448C02D813E8122303D
:1019800031052CF48D819E81009771F0D1C02D819D
:101990003E812230310509F469C08D819E818330FA
:1019A000910509F494C0C4C08C818823A9F4ABE3E9
:1019B000B0E0EBE3F0E08081482F8B81282F30E00E
:1019C00081E090E0022E02C0880F991F0A94E2F78E
:1019D000809584238C9316C08C81813099F4ABE37D
:1019E000B0E0EBE3F0E08081482F8B81282F30E0DE
:1019F00081E090E0022E02C0880F991F0A94E2F75E
:101A0000842B8C9381E0898395C08C818823A9F4F1
:101A1000A8E3B0E0E8E3F0E08081482F8B81282F35
:101A200030E081E090E0022E02C0880F991F0A94F6
:101A3000E2F7809584238C9316C08C81813099F4D1
:101A4000A8E3B0E0E8E3F0E08081482F8B81282F05
:101A500030E081E090E0022E02C0880F991F0A94C6
:101A6000E2F7842B8C9381E0898364C08C81882386
:101A7000A9F4A5E3B0E0E5E3F0E08081482F8B8195
:101A8000282F30E081E090E0022E02C0880F991FDD
:101A90000A94E2F7809584238C9316C08C81813060
:101AA00099F4A5E3B0E0E5E3F0E08081482F8B8175
:101AB000282F30E081E090E0022E02C0880F991FAD
:101AC0000A94E2F7842B8C9381E0898333C08C8164
:101AD0008823A9F4A2E3B0E0E2E3F0E08081482F9C
:101AE0008B81282F30E081E090E0022E02C0880F29
:101AF000991F0A94E2F7809584238C9316C08C81F9
:101B0000813099F4A2E3B0E0E2E3F0E08081482F75
:101B10008B81282F30E081E090E0022E02C0880FF8
:101B2000991F0A94E2F7842B8C9381E0898302C089
:101B300083E08983898126960FB6F894DEBF0FBEB5
:101B4000CDBFCF91DF910895DF93CF9300D000D028
:101B50000F92CDB7DEB78A836B8319828A81282FD3
:101B600030E03D832C838C819D818130910561F132
:101B70002C813D81223031052CF48C819D81009790
:101B800069F064C02C813D812230310599F18C814E
:101B90009D818330910509F443C058C0ABE3B0E0A8
:101BA000EBE3F0E08081482F8B81282F30E081E04B
:101BB00090E0022E02C0880F991F0A94E2F7842752
:101BC0008C9381E0898344C0A8E3B0E0E8E3F0E0CF
:101BD0008081482F8B81282F30E081E090E0022E19
:101BE00002C0880F991F0A94E2F784278C9381E042
:101BF00089832EC0A5E3B0E0E5E3F0E08081482FC3
:101C00008B81282F30E081E090E0022E02C0880F07
:101C1000991F0A94E2F784278C9381E0898318C086
:101C2000A2E3B0E0E2E3F0E08081482F8B81282F2F
:101C300030E081E090E0022E02C0880F991F0A94E4
:101C4000E2F784278C9381E0898302C083E0898353
:101C500089810F900F900F900F900F90CF91DF918F
:101C60000895DF93CF9300D000D00F92CDB7DEB7A9
:101C70008A836B8319828A81282F30E03D832C83ED
:101C80008C819D8181309105E1F02C813D81223054
:101C900031052CF48C819D81009761F027C02C8147
:101CA0003D8122303105A1F08C819D8183309105E9
:101CB000B1F01CC0EBE3F0E08B81808381E089838D
:101CC00017C0E8E3F0E08B81808381E0898310C056
:101CD000E5E3F0E08B81808381E0898309C0E2E362
:101CE000F0E08B81808381E0898302C083E0898377
:101CF00089810F900F900F900F900F90CF91DF91EF
:101D00000895DF93CF9300D000D00F92CDB7DEB708
:101D100089836A838981282F30E03D832C834C811D
:101D20005D814130510549F18C819D818230910561
:101D300034F42C813D812115310561F057C04C816F
:101D40005D814230510561F18C819D818330910527
:101D5000D1F14CC0E9E3F0E08081282F30E08A81A6
:101D6000882F90E0A90102C0559547958A95E2F722
:101D7000CA01582F51705B833AC0E6E3F0E08081DE
:101D8000282F30E08A81882F90E0A90102C0559564
:101D900047958A95E2F7CA01582F51705B8327C097
:101DA000E3E3F0E08081282F30E08A81882F90E003
:101DB000A90102C0559547958A95E2F7CA01582FA7
:101DC00051705B8314C0E0E3F0E08081282F30E0A5
:101DD0008A81882F90E0A90102C0559547958A9580
:101DE000E2F7CA01582F51705B8301C01B828B81BF
:101DF0000F900F900F900F900F90CF91DF9108955B
:101E0000DF93CF930F92CDB7DEB719820E944F06B2
:101E1000898381E064E041E00E945A0B898381E07C
:101E200064E041E00E94A70C898389810F90CF91E3
:101E3000DF910895DF93CF9300D000D00F92CDB7FC
:101E4000DEB769837A838B839C834D830E94FC0F6A
:101E50000E94AF0F81E064E040E00E94A70C82E0A6
:101E600060E070E00E94C20689819A81AB81BC81EA
:101E7000BC01CD010E9411108D8160E070E00E94D4
:101E8000C20681E064E041E00E94A70C0E94FC0FC2
:101E900081E00F900F900F900F900F90CF91DF91F6
:101EA0000895DF93CF9300D000D000D0CDB7DEB738
:101EB00069837A838B839C835E834D8389819A8136
:101EC000AB81BC810197A109B10989839A83AB8356
:101ED000BC8381E064E040E00E94A70C83E060E006
:101EE00070E00E94C20689819A81AB81BC81BC01ED
:101EF000CD010E9411102D813E8180E0B9010E9428
:101F0000C20681E064E041E00E94A70C81E02696D1
:101F10000FB6F894DEBF0FBECDBFCF91DF9108950D
:101F2000DF93CF93CDB7DEB70E94FC0F0E94AF0FB7
:101F300081E064E040E00E94A70C87EC60E070E084
:101F40000E94C20681E064E041E00E94A70C0E946A
:101F5000FC0F0E94C50F81E0CF91DF910895DF93C0
:101F6000CF93CDB7DEB781E064E040E00E94A70CDC
:101F700086E060E070E00E94C20681E064E041E03B
:101F80000E94A70CCF91DF910895DF93CF93CDB737
:101F9000DEB781E064E040E00E94A70C84E060E0EE
:101FA00070E00E94C20681E064E041E00E94A70C5C
:101FB000CF91DF910895DF93CF930F92CDB7DEB726
:101FC000198281E064E040E00E94A70C85E060E0B7
:101FD00070E00E94C20680E09E012F5F3F4FB90172
:101FE0000E94C20681E064E041E00E94A70C898162
:101FF0000F90CF91DF910895DF93CF930F92CDB7DC
:10200000DEB719820E94DB0F882F90E081709070FC
:102010008823C1F781E0898389810F90CF91DF9177
:102020000895DF93CF93CDB7DEB727970FB6F89417
:10203000DEBF0FBECDBF6C837D838E839F838C817B
:102040009D81AE81BF81CD01AA27BB2789838C8169
:102050009D81AE81BF81892F9A2FAB2FBB278A83A9
:102060008C818B83898160E070E00E94C2068A8146
:1020700060E070E00E94C2068B8160E070E00E9428
:10208000C20627960FB6F894DEBF0FBECDBFCF9124
:10209000DF910895DF93CF9300D00F92CDB7DEB7D5
:1020A0008A836B8319828A816B8141E00E945A0B7B
:1020B00081E0898389810F900F900F90CF91DF91FC
:1020C0000895DF93CF9300D00F92CDB7DEB78A8308
:1020D0006B8319828A816B8141E00E94A70C81E0A9
:1020E000898389810F900F900F90CF91DF91089590
:1020F000DF93CF9300D00F92CDB7DEB78A836B8387
:1021000019828A816B8140E00E94A70C81E089835B
:1021100089810F900F900F90CF91DF910895DF93F9
:10212000CF9300D00F92CDB7DEB78A836B8381E067
:1021300089838A816B810E94A40D81E089838981D2
:102140000F900F900F90CF91DF910895DF93CF9371
:1021500000D0CDB7DEB78A83198283E066E040E025
:102160000E94A70C82E06A810E94310E0E94BA137D
:1021700081E0898389810F900F90CF91DF9108953D
:10218000DF93CF9300D0CDB7DEB78A83198283E087
:1021900066E041E00E94A70C82E06A810E94310E55
:1021A0000E94BA1381E0898389810F900F90CF91AB
:1021B000DF910895DF93CF930F92CDB7DEB71982E9
:1021C0000E9490130E94BB140E9443150E94171690
:1021D0000E94EB1681E0898389810F90CF91DF9176
:1021E0000895DF93CF9300D0CDB7DEB78A831982ED
:1021F00083E066E040E00E94A70C8A81982F9295C8
:102200009F7082E0692F0E94310E0E94BA138A816A
:10221000982F9F7082E0692F0E94310E0E94BA139E
:1022200081E0898389810F900F90CF91DF9108958C
:10223000DF93CF9300D0CDB7DEB78A83198283E0D6
:1022400066E041E00E94A70C8A81982F92959F70CA
:1022500082E0692F0E94310E0E94BA138A81982F62
:102260009F7082E0692F0E94310E0E94BA1381E0B4
:10227000898389810F900F90CF91DF910895DF932B
:10228000CF930F92CDB7DEB719820E94A5130E949B
:1022900073170E94BC180E94511A0E94E61B81E02D
:1022A000898389810F90CF91DF910895DF93CF9338
:1022B00000D000D0CDB7DEB79C838B831A82198201
:1022C0000EC08981282F30E08B819C81FC01E20FB8
:1022D000F31F80810E94C01089818F5F898389816B
:1022E000282F30E08B819C81FC01E20FF31F80815D
:1022F000882339F781E08A838A810F900F900F90AD
:102300000F90CF91DF910895DF93CF9300D000D04D
:10231000CDB7DEB78B836C831A828C81882319F446
:102320008B81898306C08C81813019F48B81805C1C
:102330008983898180580E94A61081E08A838A81DE
:102340000F900F900F900F90CF91DF910895EF9223
:10235000FF920F931F93DF93CF93CDB7DEB72997EB
:102360000FB6F894DEBF0FBECDBF6E837F83888724
:1023700099871D8281E090E0A0E0B0E089839A8394
:10238000AB83BC838E819F81A885B9850097A10509
:10239000B10521F480E30E94C01050C08E819F815E
:1023A000A885B985BB230CF049C08DE20E94C010FE
:1023B0008E819F81A885B985B095A09590958195CE
:1023C0009F4FAF4FBF4F8E839F83A887B98736C07B
:1023D00089819A81AB81BC812AE030E040E050E005
:1023E000BC01CD010E941E257B018C018E819F8145
:1023F000A885B9852AE030E040E050E0BC01CD017D
:102400000E943D25DC01CB018E0D9F1DA01FB11F39
:1024100089839A83AB83BC838E819F81A885B9858C
:102420002AE030E040E050E0BC01CD010E943D25B3
:10243000DA01C9018E839F83A887B9878E819F8126
:10244000A885B9850097A105B10511F623C089813A
:102450009A81AB81BC812AE030E040E050E0BC01D1
:10246000CD010E943D25DC01CB01805D0E94C010A2
:1024700089819A81AB81BC812AE030E040E050E064
:10248000BC01CD010E943D25DA01C90189839A83EF
:10249000AB83BC8389819A81AB81BC8181309105FA
:1024A000A105B105A1F681E08D838D8129960FB636
:1024B000F894DEBF0FBECDBFCF91DF911F910F917A
:1024C000FF90EF900895DF93CF9300D000D0CDB769
:1024D000DEB79C838B831A8219820EC08981282FD4
:1024E00030E08B819C81FC01E20FF31F80810E9410
:1024F000181189818F5F89838981282F30E08B8132
:102500009C81FC01E20FF31F8081882339F781E071
:102510008A838A810F900F900F900F90CF91DF9157
:102520000895DF93CF9300D000D0CDB7DEB78B8373
:102530006C831A828C81882319F48B81898306C06D
:102540008C81813019F48B81805C898389818058EA
:102550000E94F11081E08A838A810F900F900F9082
:102560000F90CF91DF910895EF92FF920F931F93F9
:10257000DF93CF93CDB7DEB729970FB6F894DEBFC0
:102580000FBECDBF6E837F83888799871D8281E0D0
:1025900090E0A0E0B0E089839A83AB83BC838E8116
:1025A0009F81A885B9850097A105B10521F480E335
:1025B0000E94181150C08E819F81A885B985BB23C8
:1025C0000CF049C08DE20E9418118E819F81A88570
:1025D000B985B095A095909581959F4FAF4FBF4F0E
:1025E0008E839F83A887B98736C089819A81AB8102
:1025F000BC812AE030E040E050E0BC01CD010E9407
:102600001E257B018C018E819F81A885B9852AE0DA
:1026100030E040E050E0BC01CD010E943D25DC01EE
:10262000CB018E0D9F1DA01FB11F89839A83AB83A1
:10263000BC838E819F81A885B9852AE030E040E087
:1026400050E0BC01CD010E943D25DA01C9018E8315
:102650009F83A887B9878E819F81A885B9850097B8
:10266000A105B10511F623C089819A81AB81BC8196
:102670002AE030E040E050E0BC01CD010E943D2561
:10268000DC01CB01805D0E94181189819A81AB81A8
:10269000BC812AE030E040E050E0BC01CD010E9466
:1026A0003D25DA01C90189839A83AB83BC83898183
:1026B0009A81AB81BC8181309105A105B105A1F65C
:1026C00081E08D838D8129960FB6F894DEBF0FBE11
:1026D000CDBFCF91DF911F910F91FF90EF900895A3
:1026E000DF93CF930F92CDB7DEB7198281E00E94BE
:1026F000A61081E0898389810F90CF91DF910895A1
:10270000DF93CF930F92CDB7DEB7198281E00E949D
:10271000F11081E0898389810F90CF91DF91089535
:10272000DF93CF93CDB7DEB782E06FEF0E94570CF7
:1027300083E066E041E00E945A0B83E067E041E0FD
:102740000E945A0BCF91DF910895DF93CF93CDB7BD
:10275000DEB782E06FE00E94570C83E066E041E064
:102760000E945A0B83E067E041E00E945A0BCF9130
:10277000DF910895DF93CF93CDB7DEB76C970FB697
:10278000F894DEBF0FBECDBF83E067E041E00E945A
:10279000A70C80E090E0A0E0B0E4898F9A8FAB8F27
:1027A000BC8F698D7A8D8B8D9C8D20E030E04AEF57
:1027B00054E40E941F02DC01CB018D8B9E8BAF8BFA
:1027C000B88F6D897E898F89988D20E030E040E850
:1027D0005FE30E94250488232CF481E090E09C8B29
:1027E0008B8B3FC06D897E898F89988D20E03FEF6C
:1027F0004FE757E40E94C50318164CF5698D7A8D92
:102800008B8D9C8D20E030E040E251E40E941F025D
:10281000DC01CB01BC01CD010E944900DC01CB01F0
:102820009C8B8B8B0FC088EC90E09A8B898B89896D
:102830009A890197F1F79A8B898B8B899C890197EB
:102840009C8B8B8B8B899C89009769F714C06D8951
:102850007E898F89988D0E944900DC01CB019C8B79
:102860008B8B8B899C89988B8F878F859889019713
:10287000F1F7988B8F8783E067E040E00E94A70C18
:1028800080E090E0A0EAB0E48B879C87AD87BE87AC
:102890006B857C858D859E8520E030E04AEF54E491
:1028A0000E941F02DC01CB018F839887A987BA871A
:1028B0006F81788589859A8520E030E040E85FE384
:1028C0000E94250488232CF481E090E09E838D8370
:1028D0003FC06F81788589859A8520E03FEF4FE77B
:1028E00057E40E94C50318164CF56B857C858D85D1
:1028F0009E8520E030E040E251E40E941F02DC01AE
:10290000CB01BC01CD010E944900DC01CB019E83BB
:102910008D830FC088EC90E09C838B838B819C819E
:102920000197F1F79C838B838D819E8101979E8314
:102930008D838D819E81009769F714C06F817885A2
:1029400089859A850E944900DC01CB019E838D8395
:102950008D819E819A83898389819A810197F1F77C
:102960009A8389836C960FB6F894DEBF0FBECDBFF5
:10297000CF91DF910895DF93CF93CDB7DEB72E9738
:102980000FB6F894DEBF0FBECDBF80E090E0A8E4A4
:10299000B2E48B879C87AD87BE876B857C858D85F0
:1029A0009E8520E030E04AEF54E40E941F02DC01E3
:1029B000CB018F839887A987BA876F8178858985AE
:1029C0009A8520E030E040E85FE30E9425048823F8
:1029D0002CF481E090E09E838D833FC06F817885E9
:1029E00089859A8520E03FEF4FE757E40E94C503B1
:1029F00018164CF56B857C858D859E8520E030E032
:102A000040E251E40E941F02DC01CB01BC01CD0178
:102A10000E944900DC01CB019E838D830FC088ECAE
:102A200090E09C838B838B819C810197F1F79C8341
:102A30008B838D819E8101979E838D838D819E8165
:102A4000009769F714C06F81788589859A850E94FF
:102A50004900DC01CB019E838D838D819E819A8309
:102A6000898389819A810197F1F79A8389838CE31D
:102A70000E94A6102E960FB6F894DEBF0FBECDBFF3
:102A8000CF91DF910895DF93CF93CDB7DEB76897ED
:102A90000FB6F894DEBF0FBECDBF80E090E0A8E493
:102AA000B2E48D8B9E8BAF8BB88F6D897E898F89B9
:102AB000988D2BEA3AEA4AE250E40E941F02DC01B8
:102AC000CB01898B9A8BAB8BBC8B69897A898B897B
:102AD0009C8920E030E040E85FE30E9425048823E1
:102AE0001CF481E0888B91C069897A898B899C89E3
:102AF00020E030E04FE753E40E94C50318160CF0C5
:102B00007BC06D897E898F89988D20E030E04AE70F
:102B100054E40E941903DC01CB018C879D87AE87AA
:102B2000BF876C857D858E859F8520E030E04AEFEC
:102B300054E40E941F02DC01CB0188879987AA8791
:102B4000BB87688579858A859B8520E030E040E8F1
:102B50005FE30E94250488232CF481E090E09F83AA
:102B60008E833FC0688579858A859B8520E03FEF0D
:102B70004FE757E40E94C50318164CF56C857D8518
:102B80008E859F8520E030E040E251E40E941F02E4
:102B9000DC01CB01BC01CD010E944900DC01CB016D
:102BA0009F838E830FC088EC90E09D838C838C8103
:102BB0009D810197F1F79D838C838E819F81019781
:102BC0009F838E838E819F81009769F724C06885DB
:102BD00079858A859B850E944900DC01CB019F8312
:102BE0008E838E819F819B838A838A819B810197BB
:102BF000F1F79B838A830FC069897A898B899C89C5
:102C00000E944900DC01CB01888B888989838981F6
:102C10008A95F1F789838EE00E94A61068960FB618
:102C2000F894DEBF0FBECDBFCF91DF910895DF9343
:102C3000CF93CDB7DEB768970FB6F894DEBF0FBE5F
:102C4000CDBF80E090E0A8E4B2E48D8B9E8BAF8B8B
:102C5000B88F6D897E898F89988D2BEA3AEA4AE28E
:102C600050E40E941F02DC01CB01898B9A8BAB8B55
:102C7000BC8B69897A898B899C8920E030E040E8A7
:102C80005FE30E94250488231CF481E0888B91C0B7
:102C900069897A898B899C8920E030E04FE753E489
:102CA0000E94C50318160CF07BC06D897E898F8940
:102CB000988D20E030E04AE754E40E941903DC01DB
:102CC000CB018C879D87AE87BF876C857D858E8580
:102CD0009F8520E030E04AEF54E40E941F02DC01AF
:102CE000CB0188879987AA87BB87688579858A857C
:102CF0009B8520E030E040E85FE30E9425048823C4
:102D00002CF481E090E09F838E833FC068857985B5
:102D10008A859B8520E03FEF4FE757E40E94C5037B
:102D200018164CF56C857D858E859F8520E030E0FA
:102D300040E251E40E941F02DC01CB01BC01CD0145
:102D40000E944900DC01CB019F838E830FC088EC79
:102D500090E09D838C838C819D810197F1F79D8309
:102D60008C838E819F8101979F838E838E819F812B
:102D7000009769F724C0688579858A859B850E94BC
:102D80004900DC01CB019F838E838E819F819B83D1
:102D90008A838A819B810197F1F79B838A830FC085
:102DA00069897A898B899C890E944900DC01CB0161
:102DB000888B8889898389818A95F1F7898381E065
:102DC0000E94A61068960FB6F894DEBF0FBECDBF66
:102DD000CF91DF910895DF93CF93CDB7DEB72E97D4
:102DE0000FB6F894DEBF0FBECDBF80E090E0A0E04C
:102DF000B0E48B879C87AD87BE876B857C858D858E
:102E00009E8520E030E04AEF54E40E941F02DC017E
:102E1000CB018F839887A987BA876F817885898549
:102E20009A8520E030E040E85FE30E942504882393
:102E30002CF481E090E09E838D833FC06F81788584
:102E400089859A8520E03FEF4FE757E40E94C5034C
:102E500018164CF56B857C858D859E8520E030E0CD
:102E600040E251E40E941F02DC01CB01BC01CD0114
:102E70000E944900DC01CB019E838D830FC088EC4A
:102E800090E09C838B838B819C810197F1F79C83DD
:102E90008B838D819E8101979E838D838D819E8101
:102EA000009769F714C06F81788589859A850E949B
:102EB0004900DC01CB019E838D838D819E819A83A5
:102EC000898389819A810197F1F79A83898386E0C2
:102ED0000E94A6102E960FB6F894DEBF0FBECDBF8F
:102EE000CF91DF910895DF93CF93CDB7DEB7A6974B
:102EF0000FB6F894DEBF0FBECDBF80E090E0A8E42F
:102F0000B2E48BA39CA3ADA3BEA36BA17CA18DA1B6
:102F10009EA120E030E04AEF54E40E941F02DC0151
:102F2000CB018F8F98A3A9A3BAA36F8D78A189A194
:102F30009AA120E030E040E85FE30E942504882366
:102F40002CF481E090E09E8F8D8F3FC06F8D78A133
:102F500089A19AA120E03FEF4FE757E40E94C50303
:102F600018164CF56BA17CA18DA19EA120E030E04C
:102F700040E251E40E941F02DC01CB01BC01CD0103
:102F80000E944900DC01CB019E8F8D8F0FC088EC21
:102F900090E09C8F8B8F8B8D9C8D0197F1F79C8F90
:102FA0008B8F8D8D9E8D01979E8F8D8F8D8D9E8D9C
:102FB000009769F714C06F8D78A189A19AA10E942A
:102FC0004900DC01CB019E8F8D8F8D8D9E8D9A8F58
:102FD000898F898D9A8D0197F1F79A8F898F82E079
:102FE0000E94F11080E090E0A0E2B1E48D8B9E8B16
:102FF000AF8BB88F6D897E898F89988D2BEA3AEADD
:103000004AE250E40E941F02DC01CB01898B9A8BBB
:10301000AB8BBC8B69897A898B899C8920E030E0F5
:1030200040E85FE30E94250488231CF481E0888B3C
:1030300091C069897A898B899C8920E030E04FE7CB
:1030400053E40E94C50318160CF07BC06D897E897D
:103050008F89988D20E030E04AE754E40E941903FC
:10306000DC01CB018C879D87AE87BF876C857D8512
:103070008E859F8520E030E04AEF54E40E941F02D5
:10308000DC01CB0188879987AA87BB87688579850A
:103090008A859B8520E030E040E85FE30E942504BC
:1030A00088232CF481E090E09F838E833FC0688565
:1030B00079858A859B8520E03FEF4FE757E40E94A2
:1030C000C50318164CF56C857D858E859F8520E09F
:1030D00030E040E251E40E941F02DC01CB01BC0160
:1030E000CD010E944900DC01CB019F838E830FC07C
:1030F00088EC90E09D838C838C819D810197F1F712
:103100009D838C838E819F8101979F838E838E8187
:103110009F81009769F724C0688579858A859B859A
:103120000E944900DC01CB019F838E838E819F81A9
:103130009B838A838A819B810197F1F79B838A8392
:103140000FC069897A898B899C890E944900DC01BA
:10315000CB01888B8889898389818A95F1F7898356
:1031600088E20E94F110A6960FB6F894DEBF0FBE5B
:10317000CDBFCF91DF910895DF93CF93CDB7DEB769
:10318000E0970FB6F894DEBF0FBECDBF80E090E0B1
:10319000A8E4B2E48DA79EA7AFA7B8AB6DA57EA5A6
:1031A0008FA598A92BEA3AEA4AE250E40E941F024E
:1031B000DC01CB0189A79AA7ABA7BCA769A57AA513
:1031C0008BA59CA520E030E040E85FE30E94250449
:1031D00088231CF481E088A791C069A57AA58BA5F6
:1031E0009CA520E030E04FE753E40E94C503181689
:1031F0000CF07BC06DA57EA58FA598A920E030E0DE
:103200004AE754E40E941903DC01CB018CA39DA37F
:10321000AEA3BFA36CA17DA18EA19FA120E030E051
:103220004AEF54E40E941F02DC01CB0188A399A35A
:10323000AAA3BBA368A179A18AA19BA120E030E049
:1032400040E85FE30E94250488232CF481E090E0AD
:103250009F8F8E8F3FC068A179A18AA19BA120E09A
:103260003FEF4FE757E40E94C50318164CF56CA1D9
:103270007DA18EA19FA120E030E040E251E40E94B8
:103280001F02DC01CB01BC01CD010E944900DC0121
:10329000CB019F8F8E8F0FC088EC90E09D8F8C8F1D
:1032A0008C8D9D8D0197F1F79D8F8C8F8E8D9F8DCD
:1032B00001979F8F8E8F8E8D9F8D009769F724C009
:1032C00068A179A18AA19BA10E944900DC01CB01E0
:1032D0009F8F8E8F8E8D9F8D9B8F8A8F8A8D9B8DDA
:1032E0000197F1F79B8F8A8F0FC069A57AA58BA5EF
:1032F0009CA50E944900DC01CB0188A788A5898F85
:10330000898D8A95F1F7898F80E00E94F11080E025
:1033100090E0A0E2B1E48D8B9E8BAF8BB88F6D896E
:103320007E898F89988D2BEA3AEA4AE250E40E941E
:103330001F02DC01CB01898B9A8BAB8BBC8B69891B
:103340007A898B899C8920E030E040E85FE30E9425
:10335000250488231CF481E0888B91C069897A89CF
:103360008B899C8920E030E04FE753E40E94C5033D
:1033700018160CF07BC06D897E898F89988D20E0AE
:1033800030E04AE754E40E941903DC01CB018C874A
:103390009D87AE87BF876C857D858E859F8520E064
:1033A00030E04AEF54E40E941F02DC01CB01888721
:1033B0009987AA87BB87688579858A859B8520E060
:1033C00030E040E85FE30E94250488232CF481E08C
:1033D00090E09F838E833FC0688579858A859B8531
:1033E00020E03FEF4FE757E40E94C50318164CF565
:1033F0006C857D858E859F8520E030E040E251E43C
:103400000E941F02DC01CB01BC01CD010E944900DA
:10341000DC01CB019F838E830FC088EC90E09D83FD
:103420008C838C819D810197F1F79D838C838E81A4
:103430009F8101979F838E838E819F81009769F77B
:1034400024C0688579858A859B850E944900DC01B6
:10345000CB019F838E838E819F819B838A838A8108
:103460009B810197F1F79B838A830FC069897A89D1
:103470008B899C890E944900DC01CB01888B88895B
:10348000898389818A95F1F789838CE00E94F11004
:10349000E0960FB6F894DEBF0FBECDBFCF91DF919F
:1034A0000895DF93CF93CDB7DEB7E0970FB6F894CA
:1034B000DEBF0FBECDBF80E090E0A8E4B2E48DA7F0
:1034C0009EA7AFA7B8AB6DA57EA58FA598A92BEA3F
:1034D0003AEA4AE250E40E941F02DC01CB0189A7CC
:1034E0009AA7ABA7BCA769A57AA58BA59CA520E048
:1034F00030E040E85FE30E94250488231CF481E06B
:1035000088A791C069A57AA58BA59CA520E030E08D
:103510004FE753E40E94C50318160CF07BC06DA55D
:103520007EA58FA598A920E030E04AE754E40E94E8
:103530001903DC01CB018CA39DA3AEA3BFA36CA197
:103540007DA18EA19FA120E030E04AEF54E40E94CB
:103550001F02DC01CB0188A399A3AAA3BBA368A186
:1035600079A18AA19BA120E030E040E85FE30E94BE
:10357000250488232CF481E090E09F8F8E8F3FC03C
:1035800068A179A18AA19BA120E03FEF4FE757E412
:103590000E94C50318164CF56CA17DA18EA19FA1B8
:1035A00020E030E040E251E40E941F02DC01CB0148
:1035B000BC01CD010E944900DC01CB019F8F8E8FA1
:1035C0000FC088EC90E09D8F8C8F8C8D9D8D019726
:1035D000F1F79D8F8C8F8E8D9F8D01979F8F8E8F92
:1035E0008E8D9F8D009769F724C068A179A18AA16B
:1035F0009BA10E944900DC01CB019F8F8E8F8E8D95
:103600009F8D9B8F8A8F8A8D9B8D0197F1F79B8F62
:103610008A8F0FC069A57AA58BA59CA50E94490039
:10362000DC01CB0188A788A5898F898D8A95F1F760
:10363000898F80E00E94F11080E090E0A0E2B1E488
:103640008D8B9E8BAF8BB88F6D897E898F89988D7E
:103650002BEA3AEA4AE250E40E941F02DC01CB0165
:10366000898B9A8BAB8BBC8B69897A898B899C8976
:1036700020E030E040E85FE30E94250488231CF44A
:1036800081E0888B91C069897A898B899C8920E047
:1036900030E04FE753E40E94C50318160CF07BC0DE
:1036A0006D897E898F89988D20E030E04AE754E467
:1036B0000E941903DC01CB018C879D87AE87BF87F1
:1036C0006C857D858E859F8520E030E04AEF54E44F
:1036D0000E941F02DC01CB0188879987AA87BB87DC
:1036E000688579858A859B8520E030E040E85FE346
:1036F0000E94250488232CF481E090E09F838E8330
:103700003FC0688579858A859B8520E03FEF4FE73C
:1037100057E40E94C50318164CF56C857D858E858F
:103720009F8520E030E040E251E40E941F02DC016E
:10373000CB01BC01CD010E944900DC01CB019F837C
:103740008E830FC088EC90E09D838C838C819D815B
:103750000197F1F79D838C838E819F8101979F83D1
:103760008E838E819F81009769F724C06885798553
:103770008A859B850E944900DC01CB019F838E8353
:103780008E819F819B838A838A819B810197F1F738
:103790009B838A830FC069897A898B899C890E945F
:1037A0004900DC01CB01888B8889898389818A95CE
:1037B000F1F7898381E00E94F110E0960FB6F8944A
:1037C000DEBF0FBECDBFCF91DF910895DF93CF93C2
:1037D000CDB7DEB7A6970FB6F894DEBF0FBECDBF4C
:1037E00080E090E0A0E0B0E48BA39CA3ADA3BEA3D7
:1037F0006BA17CA18DA19EA120E030E04AEF54E4B2
:103800000E941F02DC01CB018F8F98A3A9A3BAA34A
:103810006F8D78A189A19AA120E030E040E85FE3B4
:103820000E94250488232CF481E090E09E8F8D8FE8
:103830003FC06F8D78A189A19AA120E03FEF4FE7AB
:1038400057E40E94C50318164CF56BA17CA18DA10D
:103850009EA120E030E040E251E40E941F02DC0122
:10386000CB01BC01CD010E944900DC01CB019E8F40
:103870008D8F0FC088EC90E09C8F8B8F8B8D9C8DF3
:103880000197F1F79C8F8B8F8D8D9E8D01979E8F69
:103890008D8F8D8D9E8D009769F714C06F8D78A1E7
:1038A00089A19AA10E944900DC01CB019E8F8D8FD6
:1038B0008D8D9E8D9A8F898F898D9A8D0197F1F7C5
:1038C0009A8F898F80E00E94F11080E090E0A0E262
:1038D000B1E48D8B9E8BAF8BB88F6D897E898F897C
:1038E000988D2BEA3AEA4AE250E40E941F02DC017A
:1038F000CB01898B9A8BAB8BBC8B69897A898B893D
:103900009C8920E030E040E85FE30E9425048823A2
:103910001CF481E0888B91C069897A898B899C89A4
:1039200020E030E04FE753E40E94C50318160CF086
:103930007BC06D897E898F89988D20E030E04AE7D1
:1039400054E40E941903DC01CB018C879D87AE876C
:10395000BF876C857D858E859F8520E030E04AEFAE
:1039600054E40E941F02DC01CB0188879987AA8753
:10397000BB87688579858A859B8520E030E040E8B3
:103980005FE30E94250488232CF481E090E09F836C
:103990008E833FC0688579858A859B8520E03FEFCF
:1039A0004FE757E40E94C50318164CF56C857D85DA
:1039B0008E859F8520E030E040E251E40E941F02A6
:1039C000DC01CB01BC01CD010E944900DC01CB012F
:1039D0009F838E830FC088EC90E09D838C838C81C5
:1039E0009D810197F1F79D838C838E819F81019743
:1039F0009F838E838E819F81009769F724C068859D
:103A000079858A859B850E944900DC01CB019F83D3
:103A10008E838E819F819B838A838A819B8101977C
:103A2000F1F79B838A830FC069897A898B899C8986
:103A30000E944900DC01CB01888B888989838981B8
:103A40008A95F1F7898386E00E94F110A6960FB659
:103A5000F894DEBF0FBECDBFCF91DF910895DF9305
:103A6000CF930F92CDB7DEB719820E94CE1D0E9470
:103A7000FD1D81E0898389810F90CF91DF910895A9
:103A8000DF93CF9300D000D0CDB7DEB78FEF8B831D
:103A90001A8276C08A81882F90E0FC01EA5FFE4F8F
:103AA000908180E0692F40E00E94A70C198255C0E8
:103AB0008981882F90E0FC01E65FFE4F908180E0D5
:103AC000692F0E94810E8981882F90E0FC01E65FBA
:103AD000FE4F908180E0692F0E94810E8823D1F5EE
:103AE0008A81482F50E08981282F30E0CA01880F51
:103AF000991F880F991F820F931FFC01E25FFE4FF1
:103B000080818B830BC08981882F90E0FC01E65F68
:103B1000FE4F908180E0692F0E94810E8981882F5D
:103B200090E0FC01E65FFE4F908180E0692F0E94EB
:103B3000810E882341F38A81882F90E0FC01EA5F9F
:103B4000FE4F908180E0692F41E00E94A70C8B819D
:103B50008C831CC089818F5F89838981843008F4BC
:103B6000A7CF8A81882F90E0FC01EA5FFE4F908109
:103B700080E0692F41E00E94A70C8A818F5F8A83D1
:103B80008A81843008F486CF8B818C838C810F905E
:103B90000F900F900F90CF91DF910895DF93CF9307
:103BA000CDB7DEB780E060E041E00E945A0B80E0D4
:103BB00060E041E00E94A70C80E061E041E00E94EB
:103BC0005A0B80E061E041E00E94A70C80E062E0D7
:103BD00041E00E945A0B80E062E041E00E94A70CA5
:103BE00080E063E041E00E945A0B80E063E041E046
:103BF0000E94A70CCF91DF910895DF93CF93CDB7AB
:103C0000DEB780E064E040E00E945A0B80E064E0B0
:103C100041E00E94A70C80E065E040E00E945A0B62
:103C200080E065E041E00E94A70C80E066E040E0B3
:103C30000E945A0B80E066E041E00E94A70C80E001
:103C400067E040E00E945A0B80E067E041E00E949C
:103C5000A70CCF91DF9108950F931F93DF93CF931C
:103C6000CDB7DEB7C457D0400FB6F894DEBF0FBE55
:103C7000CDBF0E9420080E943F110E942F1D0E946C
:103C8000000FFE01ED58FF4F108283E061E00E94BB
:103C900061100E94801383E060E00E94911280E630
:103CA00090E00E94631282E061E00E9491128CE633
:103CB00090E00E94631283E061E00E946110FE01C7
:103CC000E359FF4F80E090E0AFE2B4E4808391835A
:103CD000A283B3838E0107591F4FFE01E359FF4FA3
:103CE000608171818281938120E030E04AEF54E469
:103CF0000E941F02DC01CB01F80180839183A28323
:103D0000B383FE01E759FF4F608171818281938106
:103D100020E030E040E85FE30E942504882344F47B
:103D2000FE01E959FF4F81E090E09183808364C0F8
:103D3000FE01E759FF4F608171818281938120E00C
:103D40003FEF4FE757E40E94C50318160CF043C03D
:103D5000FE01E359FF4F608171818281938120E0F0
:103D600030E040E251E40E941F02DC01CB018E01F1
:103D700009591F4FBC01CD010E944900DC01CB0154
:103D8000F801918380831FC0FE01EB59FF4F88EC3F
:103D900090E091838083FE01EB59FF4F80819181F8
:103DA0000197F1F7FE01EB59FF4F91838083DE010C
:103DB000A959BF4FFE01E959FF4F808191810197B9
:103DC00011969C938E93FE01E959FF4F808191815A
:103DD0000097D1F627C08E0109591F4FFE01E75900
:103DE000FF4F60817181828193810E944900DC01D3
:103DF000CB01F80191838083DE01AD59BF4FFE01F5
:103E0000E959FF4F808191818D939C93FE01ED597B
:103E1000FF4F808191810197F1F7FE01ED59FF4F2E
:103E2000918380830E9480139E012C583F4F67E04E
:103E300070E080E090E0A9010E94510FFE01EC5873
:103E4000FF4F80818F3F09F09BC18BE790E00E947C
:103E5000631280E061E00E94911287E890E00E9486
:103E60006312FE01E15AFF4F80E090E0AFE2B4E45C
:103E700080839183A283B3838E01055A1F4FFE0175
:103E8000E15AFF4F608171818281938120E030E0AF
:103E90004AEF54E40E941F02DC01CB01F801808349
:103EA0009183A283B383FE01E55AFF4F6081718144
:103EB0008281938120E030E040E85FE30E942504A6
:103EC000882344F4FE01E75AFF4F81E090E091839C
:103ED000808364C0FE01E55AFF4F60817181828159
:103EE000938120E03FEF4FE757E40E94C503181687
:103EF0000CF043C0FE01E15AFF4F60817181828165
:103F0000938120E030E040E251E40E941F02DC0196
:103F1000CB018E01075A1F4FBC01CD010E94490001
:103F2000DC01CB01F801918380831FC0FE01E95AB7
:103F3000FF4F88EC90E091838083FE01E95AFF4FA8
:103F4000808191810197F1F7FE01E95AFF4F91833A
:103F50008083DE01A75ABF4FFE01E75AFF4F8081E1
:103F60009181019711969C938E93FE01E75AFF4F22
:103F7000808191810097D1F627C08E01075A1F4F8B
:103F8000FE01E55AFF4F60817181828193810E9419
:103F90004900DC01CB01F80191838083DE01AB5A3B
:103FA000BF4FFE01E75AFF4F808191818D939C9313
:103FB000FE01EB5AFF4F808191810197F1F7FE01DD
:103FC000EB5AFF4F918380830E94801380E060E072
:103FD0000E94911286E990E00E94631280E061E005
:103FE0000E9491128AE291E00E94AD230E94801308
:103FF00080E060E00E94911282EA90E00E946312E9
:1040000067E070E080E090E041E10E941A0F8AE2F0
:1040100091E00E946024FE01EF5AFF4F80E090E0A3
:10402000AAE7B4E480839183A283B3838E01035B08
:104030001F4FFE01EF5AFF4F608171818281938192
:1040400020E030E04AEF54E40E941F02DC01CB0183
:10405000F80180839183A283B383FE01E35BFF4F6A
:10406000608171818281938120E030E040E85FE3EC
:104070000E942504882344F4FE01E55BFF4F81E0A4
:1040800090E09183808364C0FE01E35BFF4F608119
:1040900071818281938120E03FEF4FE757E40E94D6
:1040A000C50318160CF043C0FE01EF5AFF4F6081A4
:1040B00071818281938120E030E040E251E40E94EE
:1040C0001F02DC01CB018E01055B1F4FBC01CD013E
:1040D0000E944900DC01CB01F801918380831FC05D
:1040E000FE01E75BFF4F88EC90E091838083FE0147
:1040F000E75BFF4F808191810197F1F7FE01E75B5C
:10410000FF4F91838083DE01A55BBF4FFE01E55B1E
:10411000FF4F80819181019711969C938E93FE01B0
:10412000E55BFF4F808191810097D1F6AECD8E0186
:10413000055B1F4FFE01E35BFF4F60817181828150
:1041400093810E944900DC01CB01F80191838083B7
:10415000DE01A95BBF4FFE01E55BFF4F80819181CE
:1041600011969C938E93FE01E95BFF4F80819181B4
:104170000197F1F7FE01E95BFF4F9183808385CDC5
:10418000FE01EC58FF4F8081813109F07ECD28C1BE
:1041900083EB90E00E94631280E061E00E94911244
:1041A0008AE291E00E94AD230E9480138AE291E0AE
:1041B0000E94B624882309F092C082EC90E00E940D
:1041C0006312FE01ED5BFF4F80E090E0AAE7B4E4EC
:1041D00080839183A283B3838E01015C1F4FFE0114
:1041E000ED5BFF4F608171818281938120E030E03F
:1041F0004AEF54E40E941F02DC01CB01F8018083E6
:104200009183A283B383FE01FF96608171818281D5
:10421000938120E030E040E85FE30E94250488239A
:104220002CF481E090E09EAF8DAF46C0FE01FF967A
:10423000608171818281938120E03FEF4FE757E4F5
:104240000E94C503181664F5FE01ED5BFF4F608107
:1042500071818281938120E030E040E251E40E944C
:104260001F02DC01CB01BC01CD010E944900DC0131
:10427000CB019EAF8DAF0FC088EC90E09CAF8BAFB1
:104280008BAD9CAD0197F1F79CAF8BAF8DAD9EAD23
:1042900001979EAF8DAF8DAD9EAD009769F716C0AB
:1042A000FE01FF9660817181828193810E944900A5
:1042B000DC01CB019EAF8DAF8DAD9EAD9AAF89AFC6
:1042C00089AD9AAD0197F1F79AAF89AF83E061E0CC
:1042D0000E94781083E060E00E94611088C083ED46
:1042E00090E00E94631280E090E0AAE7B4E48DAB16
:1042F0009EABAFABB8AF6DA97EA98FA998AD20E0FA
:1043000030E04AEF54E40E941F02DC01CB0189AB8C
:104310009AABABABBCAB69A97AA98BA99CA920E0ED
:1043200030E040E85FE30E94250488232CF481E01C
:1043300090E098AB8FA73FC069A97AA98BA99CA9E7
:1043400020E03FEF4FE757E40E94C50318164CF5F5
:104350006DA97EA98FA998AD20E030E040E251E43C
:104360000E941F02DC01CB01BC01CD010E9449006B
:10437000DC01CB0198AB8FA70FC088EC90E09EA723
:104380008DA78DA59EA50197F1F79EA78DA78FA557
:1043900098A9019798AB8FA78FA598A9009769F75F
:1043A00014C069A97AA98BA99CA90E944900DC01C3
:1043B000CB0198AB8FA78FA598A99CA78BA78BA59E
:1043C0009CA50197F1F79CA78BA70E948013DE01A3
:1043D000AD58BF4FFE01ED58FF4F80818F5F8C932A
:1043E000FE01ED58FF4F8081833008F4D1CEFE01ED
:1043F000ED58FF4F8081833008F486C00E948013FF
:1044000082EE90E00E94631280E090E0AAE7B4E4BC
:104410008FA398A7A9A7BAA76FA178A589A59AA5E0
:1044200020E030E04AEF54E40E941F02DC01CB019F
:104430008BA39CA3ADA3BEA36BA17CA18DA19EA1C8
:1044400020E030E040E85FE30E94250488232CF45C
:1044500081E090E09AA389A33FC06BA17CA18DA1CC
:104460009EA120E03FEF4FE757E40E94C5031816D6
:104470004CF56FA178A589A59AA520E030E040E22F
:1044800051E40E941F02DC01CB01BC01CD010E945E
:104490004900DC01CB019AA389A30FC088EC90E00E
:1044A00098A38F8F8F8D98A10197F1F798A38F8F85
:1044B00089A19AA101979AA389A389A19AA100979A
:1044C00069F714C06BA17CA18DA19EA10E94490037
:1044D000DC01CB019AA389A389A19AA19E8F8D8F1C
:1044E0008D8D9E8D0197F1F79E8F8D8F80E090E0EE
:1044F000CC58DF4F0FB6F894DEBF0FBECDBFCF91C3
:10450000DF911F910F910895FE01EE58FF4F108229
:1045100088C00E948013FE01EE58FF4F808160E04A
:104520000E94911284EF90E00E94631280E090E07C
:10453000A8ECB2E4898F9A8FAB8FBC8F698D7A8D8E
:104540008B8D9C8D20E030E04AEF54E40E941F02E6
:10455000DC01CB018D8B9E8BAF8BB88F6D897E89F3
:104560008F89988D20E030E040E85FE30E942504C9
:1045700088232CF481E090E09C8B8B8B3FC06D896D
:104580007E898F89988D20E03FEF4FE757E40E94A6
:10459000C50318164CF5698D7A8D8B8D9C8D20E0A6
:1045A00030E040E251E40E941F02DC01CB01BC017B
:1045B000CD010E944900DC01CB019C8B8B8B0FC08D
:1045C00088EC90E09A8B898B89899A890197F1F719
:1045D0009A8B898B8B899C8901979C8B8B8B8B8980
:1045E0009C89009769F714C06D897E898F89988DA1
:1045F0000E944900DC01CB019C8B8B8B8B899C89B1
:10460000988B8F878F8598890197F1F7988B8F8783
:10461000DE01AE58BF4FFE01EE58FF4F80818F5F25
:104620008C93FE01EE58FF4F8081893008F471CFE2
:10463000FE01EF58FF4F108288C00E948013FE01D8
:10464000EF58FF4F808161E00E94911284EF90E06B
:104650000E94631280E090E0A8ECB2E48B879C8714
:10466000AD87BE876B857C858D859E8520E030E09B
:104670004AEF54E40E941F02DC01CB018F8398872C
:10468000A987BA876F81788589859A8520E030E08F
:1046900040E85FE30E94250488232CF481E090E049
:1046A0009E838D833FC06F81788589859A8520E0C0
:1046B0003FEF4FE757E40E94C50318164CF56B8592
:1046C0007C858D859E8520E030E040E251E40E94AB
:1046D0001F02DC01CB01BC01CD010E944900DC01BD
:1046E000CB019E838D830FC088EC90E09C838B83ED
:1046F0008B819C810197F1F79C838B838D819E81B7
:1047000001979E838D838D819E81009769F714C0E8
:104710006F81788589859A850E944900DC01CB01EB
:104720009E838D838D819E819A83898389819A81DD
:104730000197F1F79A838983DE01AF58BF4FFE01DD
:10474000EF58FF4F80818F5F8C93FE01EF58FF4F32
:104750008081893008F471CFD7CE0F931F93DF93F8
:10476000CF93CDB7DEB761970FB6F894DEBF0FBE1B
:10477000CDBF998B888B1F861F8693C08F85282F6E
:1047800030E0888999898C01020F131F0E94A324AD
:10479000F80180838F85282F30E088899989FC0172
:1047A000E20FF31F80810E94181180E090E0ACE8D6
:1047B000B2E48B879C87AD87BE876B857C858D85B2
:1047C0009E8520E030E04AEF54E40E941F02DC01A5
:1047D000CB018F839887A987BA876F817885898570
:1047E0009A8520E030E040E85FE30E9425048823BA
:1047F0002CF481E090E09E838D833FC06F817885AB
:1048000089859A8520E03FEF4FE757E40E94C50372
:1048100018164CF56B857C858D859E8520E030E0F3
:1048200040E251E40E941F02DC01CB01BC01CD013A
:104830000E944900DC01CB019E838D830FC088EC70
:1048400090E09C838B838B819C810197F1F79C8303
:104850008B838D819E8101979E838D838D819E8127
:10486000009769F714C06F81788589859A850E94C1
:104870004900DC01CB019E838D838D819E819A83CB
:10488000898389819A810197F1F79A8389838F853A
:1048900061E00E9491128AE20E9418118F858F5F59
:1048A0008F878F85843008F469CF61960FB6F894AE
:1048B000DEBF0FBECDBFCF91DF911F910F91089545
:1048C000DF93CF93CDB7DEB727970FB6F894DEBF4F
:1048D0000FBECDBF9F838E8381E090E0A0E0B0E06B
:1048E0008A839B83AC83BD831982198220C089810E
:1048F000282F30E08E819F81FC01E20FF31F208181
:104900008A819B81AC81BD81BC01CD01422F0E9477
:104910001A0F89818F5F89838A819B81AC81BD81D8
:104920000196A11DB11D8A839B83AC83BD838981C0
:104930008430E8F227960FB6F894DEBF0FBECDBFE5
:10494000CF91DF910895DF93CF930F92CDB7DEB76C
:104950008FEF898303C00E94401D898389818F3F27
:10496000D1F389810F90CF91DF910895DF93CF9399
:10497000CDB7DEB72C970FB6F894DEBF0FBECDBF14
:104980009C878B8781E090E0A0E0B0E08B839C83E4
:10499000AD83BE8381E089831F82188619861A86BB
:1049A0001A821FC08A81882F90E09E01295F3F4FA5
:1049B000280F391F8B819C81AD81BE81BC01CD0147
:1049C000A9010E94510F8A818F5F8A838B819C810C
:1049D000AD81BE810196A11DB11D8B839C83AD83EA
:1049E000BE838A818430F0F21A821BC08A81282F0C
:1049F00030E08B859C85FC01E20FF31F40818A81AA
:104A0000282F30E0CE010796FC01E20FF31F8081D2
:104A1000481719F081E0898301C019828A818F5F6C
:104A20008A838A81843010F389812C960FB6F8949A
:104A3000DEBF0FBECDBFCF91DF910895629FD00141
:104A4000739FF001829FE00DF11D649FE00DF11D49
:104A5000929FF00D839FF00D749FF00D659FF00DF8
:104A60009927729FB00DE11DF91F639FB00DE11DE5
:104A7000F91FBD01CF011124089597FB092E0526CA
:104A80000ED057FD04D014D00AD0001C38F4509535
:104A90004095309521953F4F4F4F5F4F0895F6F762
:104AA00090958095709561957F4F8F4F9F4F08959A
:104AB000A1E21A2EAA1BBB1BFD010DC0AA1FBB1F22
:104AC000EE1FFF1FA217B307E407F50720F0A21B94
:104AD000B30BE40BF50B661F771F881F991F1A9401
:104AE00069F760957095809590959B01AC01BD012B
:104AF000CF0108952F923F924F925F926F927F92D3
:104B00008F929F92AF92BF92CF92DF92EF92FF92DD
:104B10000F931F93CF93DF93CDB7DEB7CA1BDB0B89
:104B20000FB6F894DEBF0FBECDBF09942A8839882E
:104B300048885F846E847D848C849B84AA84B98435
:104B4000C884DF80EE80FD800C811B81AA81B98141
:104B5000CE0FD11D0FB6F894DEBF0FBECDBFED0155
:064B60000895F894FFCF58
:104B660057656C636F6D6520546F20004C6F6769E5
:104B76006E2053797374656D2021004669727374D3
:104B8600204C6F67696E005365742041646D696ED1
:104B960020506173730050617373776F7264203AAB
:104BA60020004C6F67696E20537563636573736687
:104BB600756C00504C5320456E74657220506173BD
:104BC6007300436F72726563742050617373776FFD
:104BD60072640057726F6E672050617373776F72DD
:104BE6006400546F6F206D616E7920617474656D19
:104BF6007074730057656C636F6D6521000000006B
:104C06000000000000010001020304050607373812
:0E4C1600392F3435362A3132332D45303D2BBF
:00000001FF
